:1000000000308A0019280000213084008313000882
:10001000031918280130F800F701F70B0D28F80B29
:100020000C284A30F700F70B13281628800B0A28F3
:10003000080003081F39830083161F149F141F151F
:100040009F1107309C0083138601073087008801C9
:10005000FF3083128600E03088000A30A1000420BF
:1000600007183428F93086000A30A10004208718C8
:100070003B28A43086000A30A1000420071942283A
:10008000B03086000A30A1000420D03088000A3049
:10009000A100042007184E28993086000A30A100DC
:1000A000042087185528923086000A30A1000420C9
:1000B00007195C28823086000A30A1000420B03085
:1000C00088000A30A100042007186828F83086004C
:1000D0000A30A100042087186F28803086000A307B
:1000E000A100042007197628983086000A30A10064
:1000F0000420703088000A30A100042007188228EC
:10010000883086000A30A1000420871889288330AF
:1001100086000A30A100042007199028C630860006
:100120000A30A1000420F03088000A30A100042029
:040130002B28630015
:02400E00713F00
:00000001FF
;PIC16F877A
;CRC=CCA8  CREATED="14-Jun-24 16:49"
