:1000000000308A00192800002F3084008313000874
:10001000031918280130F800F701F70B0D28F80B29
:100020000C284A30F700F70B13281628800B0A28F3
:10003000080003081F39830083161F149F141F151F
:100040009F1107309C008313C0308312A100F93048
:10005000A200A430A300B030A4009930A5009230D3
:10006000A6008230A700F830A8008030A9009030A8
:10007000AA00831686018701831286018701AD01DC
:100080002D08093C031C7C28AC012C08093C031CEE
:100090007A28AB012B08093C031C7828AE012E08F6
:1000A000093C031C7628871521302B078400831315
:1000B000000886001930AF00042087110715213091
:1000C0002C0784008313000886001930AF00042039
:1000D0000711871421302D07840083130008860040
:1000E0001930AF0004208710AE0A4F28AB0A4A2807
:0C00F000AC0A4528AD0A40283F286300F8
:02400E00713F00
:00000001FF
;PIC16F877A
;CRC=4D3D  CREATED="14-Jun.-23 01:47"
