:1000000000308A0019280000213084008313000882
:10001000031918280130F800F701F70B0D28F80B29
:100020000C284A30F700F70B13281628800B0A28F3
:10003000080003081F39830083161F149F141F151F
:100040009F1107309C00831386018701831286016C
:1000500087018714C73086000A30A100042087106A
:100060000715863086000A30A10004200711871585
:10007000C03086000A30A1000420871129286300BF
:02400E00713F00
:00000001FF
;PIC16F877A
;CRC=6283  CREATED="14-Jun.-23 00:57"
