:1000000000308A00192800002E3084008313000875
:10001000031918280130F800F701F70B0D28F80B29
:100020000C284A30F700F70B13281628800B0A28F3
:10003000080003081F39830083161F149F141F151F
:100040009F1107309C008313C0308312A100F93048
:10005000A200A430A300B030A4009930A5009230D3
:10006000A6008230A700F830A8008030A9009030A8
:10007000AA00831686018701831286018701AC01DD
:100080002C08093C031C6A28AB012B08093C031C03
:100090006828AD012D08093C031C6628871521300E
:1000A0002B0784008313000886001930AE0004205B
:1000B0008711071521302C07840083130008860060
:1000C0001930AE0004200711AD0A4A28AB0A4528B2
:0800D000AC0A40283F28630040
:02400E00713F00
:00000001FF
;PIC16F877A
;CRC=782E  CREATED="14-Jun.-23 01:39"
