:1000000000308A0019280000213084008313000882
:10001000031918280130F800F701F70B0D28F80B29
:100020000C284A30F700F70B13281628800B0A28F3
:10003000080003081F39830083161F149F141F151F
:100040009F1107309C0083130330860087018312C1
:100050008701061C3C280714871407158715643090
:10006000A100042007108710071187116430A10038
:10007000042086183E282B28861C5D28071487102C
:10008000071187116430A10004200710871407119D
:1000900087116430A100042007108710071587110D
:1000A0006430A10004200710871007118715643001
:0E00B000A100042006182B283E2829286300F2
:02400E00713F00
:00000001FF
;PIC16F877A
;CRC=C2E2  CREATED="14-Jun-24 15:58"
