:1000000000308A0055280000F701F801300803107D
:100010003118F707F70CF80CB118F707F70CF80CC4
:100020003119F707F70CF80CB119F707F70CF80CB2
:10003000311AF707F70CF80CB11AF707F70CF80CA0
:10004000311BF707F70CF80CB11BF707F70CF80C8E
:100050008A110A1297283108F80130020318332850
:100060003008F7003F28F7010830B200B00DF70D57
:10007000310877020318F700F80DB20B3628080094
:100080003030840083130008031954280130F8002D
:10009000F701F70B4928F80B48284A30F700F70B0F
:1000A0004F285228800B4628080003081F39830078
:1000B00083161F149F141F159F1107309C00831374
:1000C000860103308700C0308312A100F930A200FE
:1000D000A430A300B030A4009930A5009230A6004F
:1000E0008230A700F830A8008030A9009030AA0024
:1000F000AB010715871121302B07840083130008FB
:10010000860007189028AB0A2B080A3C0319AB019C
:1001100021302B078400831300088600071C8E28DB
:100120008718C4282B08B0000630B10004287808CE
:10013000AC002C08B0000A30B1002B207808AE00CB
:100140002C08B0000A30B1002B207708AD00AF01B9
:100150002F081D3C031CC428871521302E0784005E
:100160008313000886003230B00040208711071545
:1001700021302D0784008313000886003230B00040
:0C01800040200711AF0AA828792863006E
:02400E00713F00
:00000001FF
;PIC16F877A
;CRC=0325  CREATED="26-Jun.-23 15:12"
