:1000000003308A00E82B00002010A0214F2754293C
:100010004F2620224510201000002010D4224D2809
:100020004529412A5529C110201000010C00D42275
:100030004D285F18311DA01230197500D4224D28AB
:100040005F18321DA012301975002D308400831303
:100050000008031939280130F800F701F70B2E28A2
:10006000F80B2D284A30F700F70B34283728800B7F
:100070002B28080034183E2806123F28061683163F
:1000800006128312B418462886124728861683164D
:100090008612831234194E2806134F28061783162A
:1000A00006138312B4195628861357288617831609
:1000B0008613000083120614831606105F2883122D
:1000C00006108316061083120800B5018316061663
:1000D00000308312061A0130B504831686160030EC
:1000E0008312861A0130F7000310F70D7708B50464
:1000F0008316061700308312061B0130F700F70D38
:10010000F70DFC30F7057708B50483168617003025
:100110008312861B0130F700F70DF70DF70DF8304D
:10012000F7057708B5043508F800080083160610AF
:100130008610061183128610831686100616861600
:100140000617861783120615831606110000831200
:100150000614831606100000831265207808B40088
:10016000061083160610000083120614831606106C
:100170000000831265207808B3000610831606106D
:1001800006128612061386138312340EF700F0301F
:10019000F70577083304F8007808B300B31FD228B6
:1001A00083169E28B108031DD7288610D8288614E8
:1001B00083168610000083120611831606110000B4
:1001C00083120610831606108312320EB3000F300E
:1001D000B3053308B4003A2032080F39B300B40035
:1001E0003A2008002830A9000C30AA000130AB00EA
:1001F0000630AC0006108316061083128610831694
:100200008610831206118316061106128612061333
:1002100086130610861006110F308312AD002520BC
:100220000130A8002808033C031C1E290330B40039
:100230003A200530AD002520A80A12290230B4006A
:100240003A200530AD002520A8012808033C031CF6
:10025000352929302807840083130008AD00B10137
:100260002D08B2009620A80A25298A110A12F82B17
:100270002E0B3B293E294030AF003F29AF01013012
:100280002D02AF072F088038B000B1013008B2004E
:10029000962008002C08073A031958290B3A03192D
:1002A0005D29063A03196529023A03196B29702959
:1002B0000130AD00AE0038217529B1010130B20026
:1002C00096200230AD00252075290130AD000230A6
:1002D000AE0038217529B1011030B2009620752981
:1002E0000130B1002C08B200962008000B08A800CD
:1002F0008B13831603178C170C1400000000831255
:100300000313A81B8B1703170C087F390319CA297D
:100310000313A80003170D080313A90003170F0800
:100320000313AA002808AC004A21290803178D00EE
:1003300003132A0803178F0003130B08AB008B135A
:10034000831603178C170C1400000000831203138C
:10035000AB1B8B1703170C0D0E0D7F390319CA2920
:100360000313A80003170D080313A90003170F08B0
:100370000313AA002808AC004A21290803178D009E
:1003800003132A0803178F008D0A03198F0A03131A
:1003900076290317031308008E30F7002908F800A8
:1003A0002808F900FA01F808031DE0297908F80087
:1003B000F9010830F702F808031DE029F701E829E0
:1003C0000310F81BE729F90DF80DF703E029F813DE
:1003D000080028080319592AB0002C080319592AC3
:1003E000B0070318FA297F30B002031C592A0319F9
:1003F000592AFE298130B0070318592A3008F7001E
:10040000F801F901FA012908B400B4172A08B30069
:100410002B08B2001830B000B101321C272A2F0877
:10042000FA07031C192AF90A031D192AF80A0319E5
:10043000B1172E08F907031C202AF80A0319B1176F
:100440002D08AA00AA172A08F8070318B117B10D3A
:10045000F80CF90CFA0CB40CB30CB20C0310B00B82
:100460000C2A0130F7070318592AF81B3E2AB40D4D
:10047000FA0DF90DF80DF7030319592AB41F4F2A85
:10048000FA0A031D4F2AF90A031D4F2AF80A031D11
:100490004F2AF80CF90CFA0CF70A0319592A290803
:1004A000B1002D08B106B11F572AF8175D2AF813BD
:1004B0005D2AF701F801F901FA0108002C08031977
:1004C000232BB80030080319232BB802031C6D2A14
:1004D0007F30B8070318232B732A8130B802031C1E
:1004E000232B0319232B3808F700F801F901FA012F
:1004F000B7012D08B600B6172E08B5002F08B400B6
:100500001930B8003308B4020318962A0130B50236
:100510000318962AB6020318962AB7020318962AD9
:10052000B70AB60AB50A3308B407C82A3208B502B2
:100530000318B12A0130B6020318B12AB702031812
:10054000B12AB70AB60A3208B5073308B407031C44
:10055000C82AB50A031DC82AB60A031DC82AB70A45
:10056000C82A31088038B6020318C72A0130B702FA
:100570000318C72AB70A31088038B6073208B5070A
:10058000031CA52AB60A031DA52AB70AA52A7A14B0
:10059000B80BCB2AD62A0310B40DB50DB60DB70D86
:1005A0000310FA0DF90DF80DB90D822A391CDE2A57
:1005B0000310F80CF90CFA0CB90CE12AF703031933
:1005C000232BB91B0A2B0310B40DB50DB60DB70DB7
:1005D0003308B4020318F62A0130B5020318F62ACC
:1005E000B6020318F62AB702031C192B3208B5020B
:1005F0000318012B0130B6020318012BB702031CAC
:10060000192B31088038B60203180A2B0130B702C3
:10061000031C192BFA0A031D192BF90A031D192BA8
:10062000F80A031D192BF70A0319232BF80CF90CF0
:10063000FA0C2D08B8003108B806B81F212BF8179E
:10064000272BF813272BF701F801F901FA0108000D
:100650008E30F7002808F7022908F9002A08F80068
:10066000F917F70803193F2B0310F908031D3B2B5B
:10067000F80803193F2BF90CF80CF70B342BA91FC2
:10068000462BF809F909F80A0319F90A08000B08BA
:10069000A9008B13831603178C170C14000000009D
:1006A00083120313A91B8B1703187E2B03170C0847
:1006B0007F390313A90003170D080313AA000317BA
:1006C0000F080313AB002908AC004A212A080317BE
:1006D0008D0003132B0803178F0003130B08AC00C6
:1006E0008B13831603178C170C1400000000831261
:1006F0000313AC1B8B17A80B7E2B9D2B03170C0D24
:100700000E0D7F390313A90003170D080313AA0068
:1007100003170F080313AB002908AC004A212A086D
:1007200003178D0003132B0803178F008D0A03197D
:100730008F0A03100313A80B472B08002B08F8019E
:100740002A020318A62B2A08F700B22BF70108305B
:10075000AC00AA0DF70D2B0877020318F700F80D6F
:10076000AC0BA92B080078082808AA006430AB005D
:100770009E237708A80078083030031DC62BA91CDB
:10078000CD2BA919CD2B291A2030C92BA91129123B
:100790002914F8077808AC004A212808AA000A3072
:1007A000AB009E237708A80078083030031DDE2BAD
:1007B000A919E22B291CE22B291A2030F807780806
:1007C000AC004A213030A8072808AC004A210800B4
:1007D00003081F39830083161F149F141F159F11D0
:1007E00007309C008313880183128801A701F22837
:1007F00083161F109F101F119F111F1383121F17A5
:100800009F1783169F1783121F140130AD00AE008F
:100810003821043003178D0000308F000313762138
:100820000130AD000230AE0038210D3003178D00CD
:1008300000308F00031376210830A800FA30AD0095
:100840002520A80B1E2C163003178D0000308F00BA
:10085000031376210030F8001F08C73978049F0081
:100860000630F700F70B322C00001F151F19362C2D
:1008700083161E088312A1001E08A2002208A900E8
:100880002108A800CC21AB01AA014830A90085307D
:10089000A8007A08AF007908AE007808AD007708A4
:1008A000AC00E9217A08AB007908AA007808A90011
:1008B0007708A8007A08AF007908AE007808AD0084
:1008C0007708AC00B301C030B2007F30B10088308F
:1008D000B0005E227A08AB007908AA007808A90067
:1008E0007708A80028237808A5000830F8001F081A
:1008F000C73978049F000630F700F70B7D2C000005
:100900001F151F19812C83161E088312A3001E08B1
:10091000A4002408A9002308A800CC21AB01AA0147
:100920004830A9008530A8007A08AF007908AE00E9
:100930007808AD007708AC00E9217A08AB007908A7
:10094000AA007808A9007708A8007A08AF007908FB
:10095000AE007808AD007708AC00B301C030B2003B
:100960007F30B1008830B0005E227A08AB00790891
:10097000AA007808A9007708A80028237808A6000C
:100980000130AD00AE003821173003178D00003064
:100990008F00031009300313A80047232508A8007F
:1009A0000130A900B3230130AD000230AE00382180
:1009B0001E3003178D0000308F0003100930031321
:1009C000A80047232608A8000130A900B323250862
:1009D000313C0318F52C2608313C0318F52C08147B
:1009E0008810081588110230A7002708023C031D53
:1009F000032D25081D3C031C032D26081D3C031C4C
:100A0000032D8801A70125081D3C0318162D260873
:100A1000313C031C162D2708023C0319162D08141F
:100A200088100811881108160130A700270B1E2D09
:100A30002508193C031C1E2D8801A7016430AD0058
:060A400025202A2C6300B2
:02400E00713F00
:00000001FF
;PIC16F877A
;CRC=F53F  CREATED="07-Jul-24 00:00"
