:1000000003308A00032B000020104527C3224E2214
:1000100049224F10C4222010000020102010CD27AC
:10002000D4275210C4212010201000010C000C0015
:10003000CD37F437721DA0276E00D434E536F03783
:100040003A102518B23A0000CD37F437721DA027B8
:1000500066330001D434E536F0373A102518B23A49
:1000600000002C3084008313000803194528013058
:10007000F800F701F70B3A28F80B39284A30F70057
:10008000F70B40284328800B3728080033184A28EC
:1000900008124B280816831608128312B318522828
:1000A00088125328881683168812831233195A2807
:1000B00008135B280817831608138312B3196228E4
:1000C0008813632888178316881300008312881505
:1000D000831688116B288312881183168811831266
:1000E0000800B4018316081600308312081A013084
:1000F000B4048316881600308312881A0130F70082
:100100000310F70D7708B404831608170030831224
:10011000081B0130F700F70DF70DFC30F7057708E5
:10012000B4048316881700308312881B0130F7004F
:10013000F70DF70DF70DF830F7057708B40434081C
:10014000F80008008316881188100811831288109F
:100150008316881008168816081788178312081542
:100160008316081100008312881583168811000079
:10017000831271207808B30088118316881100005B
:100180008312881583168811000083127120780865
:10019000B200881183168811081288120813881378
:1001A0008312330EF700F030F70577083204F800B9
:1001B0007808B200B21FDE288316AA28B008031DF3
:1001C000E3288810E428881483168810000083121E
:1001D00008118316081100008312881183168811F4
:1001E0008312310EB2000F30B2053208B300462040
:1001F00031080F39B200B300462008002830A800AB
:100200000C30A9000130AA000630AB00881183161B
:1002100088118312881083168810831208118316A0
:100220000811081288120813881388118810081101
:100230000F308312AC0031200130A7002708033CA7
:10024000031C2A290330B30046200530AC003120BE
:10025000A70A1E290230B30046200530AC00312029
:10026000A7012708033C031C4129283027078400E5
:1002700083130008AC00B0012C08B100A220A70A2B
:1002800031298A110A12182B2D0B47294A2940308F
:10029000AE004B29AE0101302C02AE072E0880388B
:1002A000AF00B0012F08B100A22008002B08073AC8
:1002B000031964290B3A03196929063A03197129AC
:1002C000023A031977297C290130AC00AD004421A2
:1002D0008129B0010130B100A2200230AC003120F0
:1002E00081290130AC000230AD0044218129B001E8
:1002F0001030B100A22081290130B0002B08B100DC
:10030000A22008000B08A7008B13831603178C1775
:100310000C140000000083120313A71B8B17031794
:100320000C087F390319D6290313A70003170D08FA
:100330000313A80003170F080313A9002708AB0035
:100340005621280803178D000313290803178F006F
:1003500003130B08AA008B13831603178C170C14B6
:100360000000000083120313AA1B8B1703170C0D48
:100370000E0D7F390319D6290313A70003170D08A3
:100380000313A80003170F080313A9002708AB00E5
:100390005621280803178D000313290803178F001F
:1003A0008D0A03198F0A0313822903170313080008
:1003B0008616061CE0290130A000A1000618DE29DF
:1003C000861CE7290430A000A1008618E529061D37
:1003D000EE290730A000A1000619EC29861DF2299C
:1003E0000A30A00086120617061CFB290230A00066
:1003F000A1000618F929861C022A0530A000A100D8
:100400008618002A061D092A0830A000A100061936
:10041000072A861D0F2AA001A10186190D2A06139D
:100420008617061C182A0330A000A1000618162AF9
:10043000861C1F2A0630A000A10086181D2A061D52
:10044000262A0930A000A1000619242A861D2C2A7C
:100450000B30A00086192A2A86130800F701F8013C
:10046000270803102818F707F70CF80CA818F70747
:10047000F70CF80C2819F707F70CF80CA819F70770
:10048000F70CF80C281AF707F70CF80CA81AF7075E
:10049000F70CF80C281BF707F70CF80CA81BF7074C
:1004A000F70CF80C8A110A12512B023085005030DB
:1004B000AC003120013085005030AC0031208A1171
:1004C0000A12592B0B08A8008B13831603178C17DD
:1004D0000C140000000083120313A81B8B170318D1
:1004E000992A03170C087F390313A80003170D0876
:1004F0000313A90003170F080313AA002808AB0071
:100500005621290803178D0003132A0803178F00AB
:1005100003130B08AB008B13831603178C170C14F3
:100520000000000083120313AB1B8B17A70B992A43
:10053000B82A03170C0D0E0D7F390313A8000317FB
:100540000D080313A90003170F080313AA002808B6
:10055000AB005621290803178D0003132A0803173F
:100560008F008D0A03198F0A03100313A70B622A49
:1005700008002A08F80129020318C12A2908F700EF
:10058000CD2AF7010830AB00A90DF70D2A08770234
:100590000318F700F80DAB0BC42A080078082708E9
:1005A000A9006430AA00B9227708A7007808303083
:1005B000031DE12AA81CE82AA819E82A281A2030D5
:1005C000E42AA81128122814F8077808AB0056214D
:1005D0002708A9000A30AA00B9227708A7007808DE
:1005E0003030031DF92AA819FD2A281CFD2A281AD3
:1005F0002030F8077808AB0056213030A7072708CD
:10060000AB005621080003081F3983000C30A000FE
:10061000A201A30183161F149F141F159F110730F9
:100620009C00831385010F30860083128501FE280C
:100630000130AC00AD004421043003178D000030C0
:100640008F00031382210130AC000230AD00442141
:100650000D3003178D0000308F00031382210C3002
:10066000A700FA30AC003120A70B312B163003174E
:100670008D0000308F0003138221D8212008093C0F
:10068000031C542B2208A3006430AC003120210845
:10069000A2006430AC0031202308A7000A30A80073
:1006A0002E2A22087807A40020080B3C031D992B52
:1006B000552A173003178D0000308F000313822155
:1006C0002408A500A601250826020318952BD82189
:1006D00020080A3C0319952B0130AC00AD004421E1
:1006E000183003178D0000308F0003138221013072
:1006F000AC000230AD0044211D3003178D000030E6
:100700008F00031008300313A70062222408A700FB
:100710000130A800CE22A4030430A700E630AC00CC
:100720003120A70B8E2BA60A632BA201A301A401E3
:10073000850120080A3C031DA02BA301A201A401EE
:100740000130AC00AD004421243003178D0000308F
:100750008F00031382210130AC000230AD00442130
:100760002A3003178D0000308F0003100830031368
:10077000A70062222408A7000130A800CE220C3076
:06078000A0003D2B630008
:02400E00713F00
:00000001FF
;PIC16F877A
;CRC=BD2F  CREATED="16-Jun-24 18:22"
