:1000000000308A001B2800002D3084008313000874
:10001000031918280130F800F701F70B0D28F80B29
:100020000C284A30F700F70B13281628800B0A28F3
:100030008A110A12522803081F39830083161F14DD
:100040009F141F159F1107309C008313C03083122B
:10005000A100F930A200A430A300B030A400993070
:10006000A5009230A6008230A700F830A8008030AA
:10007000A9009030AA0083168601870183128601A9
:100080008701AB012B08093C031C57288715213039
:100090002B0784008313000886000230AC00FA307E
:1000A000AD000428AC0B4F288711AB0A4228412829
:0200B0006300EB
:02400E00713F00
:00000001FF
;PIC16F877A
;CRC=1B87  CREATED="14-Jun.-23 01:14"
